S01200006176726375727461696E2E73726563D3
S11300000EC020C01FC01EC01DC01CC01BC01AC013
S113001019C018C017C016C015C014C013C01124CD
S11300201FBECFE5D2E0DEBFCDBF10E0A0E6B0E05A
S1130030EEECF1E002C005900D92A236B107D9F7BB
S1130040A6D0C3C0DDCFC09AC1980895C098C19A04
S11300500895C09B07C088B3869591E08927817075
S113006090E0089580E090E00895C09905C088B3B9
S11300708695817090E0089580E090E0089586B3BD
S11300808695869591E08927817090E0089586B3DE
S113009086958695869591E08927817090E00895EC
S11300A0D8DF892B49F4E1DF31E020E0892B09F422
S11300B030E0832F922F089581E090E00895C9DF06
S11300C0892B29F0DCDF892B11F0C0DF07C0CDDFDD
S11300D0892B21F0DCDF892B09F0B5DF87EA91E673
S11300E00197F1F700C00000C098C198089526B3A5
S11300F086B3807190E0207130E08217930769F431
S1130100892B59F480E0E3ECF9E03197F1F700C072
S113011000008F5FB49BF7CF06C080E090E00895A5
S113012081E090E008958233C0F3FACFB9DF892BE0
S113013011F0C5DF0895A3DF892B41F087DF8FEF2E
S11301409FEF90936100809360000895A0DF892B56
S113015041F079DF81E090E090936100809360004A
S113016008958091600090916100019641F46BDFE5
S113017081E090E09093610080936000089566DFD1
S11301808FEF9FEF90936100809360000895B89A79
S1130190B99A95DFBA98BB98C29AC39ABC98C49A84
S11301A058DF892B29F06BDF892B11F088DFF8CF1A
S11301B05CDF892B29F06BDF892B11F080DFF0CF16
S11101C096DF892B69F3B2DFEBCFF894FFCF03
S10501CE01002A
S9030000FC
