:100000000EC020C01FC01EC01DC01CC01BC01AC017
:1000100019C018C017C016C015C014C013C01124D1
:100020001FBECFE5D2E0DEBFCDBF10E0A0E6B0E05E
:10003000E6EBF1E002C005900D92A236B107D9F7C8
:100040009AD0B7C0DDCFC09AC1980895C098C19A20
:100050000895C09B07C088B3869591E08927817079
:1000600090E0089580E090E00895C09905C088B3BD
:100070008695817090E0089580E090E0089586B3C1
:100080008695869591E08927817090E0089586B3E2
:1000900086958695869591E08927817090E00895F0
:1000A000D8DF892B49F4E1DF31E020E0892B09F426
:1000B00030E0832F922F089581E090E00895C9DF0A
:1000C000892B29F0DCDF892B11F0C0DF07C0CDDFE1
:1000D000892B21F0DCDF892B09F0B5DF87E893E17C
:1000E0000197F1F700C00000C098C198089526B3A9
:1000F000207130E086B3807190E08217930719F485
:1001000021153105B9F381E090E0232B11F080E057
:1001100090E00895C5DF892B11F0D1DF0895AFDF9E
:10012000892B41F093DF8FEF9FEF909361008093D5
:1001300060000895ACDF892B41F085DF81E090E01D
:100140009093610080936000089580916000909189
:100150006100019641F477DF81E090E090936100C7
:1001600080936000089572DF8FEF9FEF909361009E
:10017000809360000895B89AB99AA1DFBA98BB98A5
:10018000C29AC39ABC98C49A64DF892B29F077DF9E
:10019000892B11F094DFF8CF68DF892B29F077DF06
:1001A000892B11F08CDFF0CFA2DF892B69F3B2DF4E
:0601B000EBCFF894FFCF35
:0201B600010046
:00000001FF
